{
    "contractName": "Counter",
    "abi": [
        {
            "inputs": [
                {
                    "internalType": "string",
                    "name": "_name",
                    "type": "string"
                },
                {
                    "internalType": "string",
                    "name": "_symbol",
                    "type": "string"
                }
            ],
            "stateMutability": "nonpayable",
            "type": "constructor"
        },
        {
            "inputs": [
                {
                    "internalType": "address",
                    "name": "sender",
                    "type": "address"
                },
                {
                    "internalType": "uint256",
                    "name": "tokenId",
                    "type": "uint256"
                },
                {
                    "internalType": "address",
                    "name": "owner",
                    "type": "address"
                }
            ],
            "name": "ERC721IncorrectOwner",
            "type": "error"
        },
        {
            "inputs": [
                {
                    "internalType": "address",
                    "name": "operator",
                    "type": "address"
                },
                {
                    "internalType": "uint256",
                    "name": "tokenId",
                    "type": "uint256"
                }
            ],
            "name": "ERC721InsufficientApproval",
            "type": "error"
        },
        {
            "inputs": [
                {
                    "internalType": "address",
                    "name": "approver",
                    "type": "address"
                }
            ],
            "name": "ERC721InvalidApprover",
            "type": "error"
        },
        {
            "inputs": [
                {
                    "internalType": "address",
                    "name": "operator",
                    "type": "address"
                }
            ],
            "name": "ERC721InvalidOperator",
            "type": "error"
        },
        {
            "inputs": [
                {
                    "internalType": "address",
                    "name": "owner",
                    "type": "address"
                }
            ],
            "name": "ERC721InvalidOwner",
            "type": "error"
        },
        {
            "inputs": [
                {
                    "internalType": "address",
                    "name": "receiver",
                    "type": "address"
                }
            ],
            "name": "ERC721InvalidReceiver",
            "type": "error"
        },
        {
            "inputs": [
                {
                    "internalType": "address",
                    "name": "sender",
                    "type": "address"
                }
            ],
            "name": "ERC721InvalidSender",
            "type": "error"
        },
        {
            "inputs": [
                {
                    "internalType": "uint256",
                    "name": "tokenId",
                    "type": "uint256"
                }
            ],
            "name": "ERC721NonexistentToken",
            "type": "error"
        },
        {
            "anonymous": false,
            "inputs": [
                {
                    "indexed": true,
                    "internalType": "address",
                    "name": "owner",
                    "type": "address"
                },
                {
                    "indexed": true,
                    "internalType": "address",
                    "name": "approved",
                    "type": "address"
                },
                {
                    "indexed": true,
                    "internalType": "uint256",
                    "name": "tokenId",
                    "type": "uint256"
                }
            ],
            "name": "Approval",
            "type": "event"
        },
        {
            "anonymous": false,
            "inputs": [
                {
                    "indexed": true,
                    "internalType": "address",
                    "name": "owner",
                    "type": "address"
                },
                {
                    "indexed": true,
                    "internalType": "address",
                    "name": "operator",
                    "type": "address"
                },
                {
                    "indexed": false,
                    "internalType": "bool",
                    "name": "approved",
                    "type": "bool"
                }
            ],
            "name": "ApprovalForAll",
            "type": "event"
        },
        {
            "anonymous": false,
            "inputs": [
                {
                    "indexed": true,
                    "internalType": "address",
                    "name": "from",
                    "type": "address"
                },
                {
                    "indexed": true,
                    "internalType": "address",
                    "name": "to",
                    "type": "address"
                },
                {
                    "indexed": true,
                    "internalType": "uint256",
                    "name": "tokenId",
                    "type": "uint256"
                }
            ],
            "name": "Transfer",
            "type": "event"
        },
        {
            "inputs": [
                {
                    "internalType": "address",
                    "name": "to",
                    "type": "address"
                },
                {
                    "internalType": "uint256",
                    "name": "tokenId",
                    "type": "uint256"
                }
            ],
            "name": "approve",
            "outputs": [],
            "stateMutability": "nonpayable",
            "type": "function"
        },
        {
            "inputs": [
                {
                    "internalType": "address",
                    "name": "owner",
                    "type": "address"
                }
            ],
            "name": "balanceOf",
            "outputs": [
                {
                    "internalType": "uint256",
                    "name": "",
                    "type": "uint256"
                }
            ],
            "stateMutability": "view",
            "type": "function"
        },
        {
            "inputs": [
                {
                    "internalType": "uint256",
                    "name": "tokenId",
                    "type": "uint256"
                }
            ],
            "name": "getApproved",
            "outputs": [
                {
                    "internalType": "address",
                    "name": "",
                    "type": "address"
                }
            ],
            "stateMutability": "view",
            "type": "function"
        },
        {
            "inputs": [],
            "name": "increment",
            "outputs": [],
            "stateMutability": "nonpayable",
            "type": "function"
        },
        {
            "inputs": [
                {
                    "internalType": "address",
                    "name": "owner",
                    "type": "address"
                },
                {
                    "internalType": "address",
                    "name": "operator",
                    "type": "address"
                }
            ],
            "name": "isApprovedForAll",
            "outputs": [
                {
                    "internalType": "bool",
                    "name": "",
                    "type": "bool"
                }
            ],
            "stateMutability": "view",
            "type": "function"
        },
        {
            "inputs": [],
            "name": "name",
            "outputs": [
                {
                    "internalType": "string",
                    "name": "",
                    "type": "string"
                }
            ],
            "stateMutability": "view",
            "type": "function"
        },
        {
            "inputs": [],
            "name": "number",
            "outputs": [
                {
                    "internalType": "uint256",
                    "name": "",
                    "type": "uint256"
                }
            ],
            "stateMutability": "view",
            "type": "function"
        },
        {
            "inputs": [
                {
                    "internalType": "uint256",
                    "name": "tokenId",
                    "type": "uint256"
                }
            ],
            "name": "ownerOf",
            "outputs": [
                {
                    "internalType": "address",
                    "name": "",
                    "type": "address"
                }
            ],
            "stateMutability": "view",
            "type": "function"
        },
        {
            "inputs": [
                {
                    "internalType": "address",
                    "name": "from",
                    "type": "address"
                },
                {
                    "internalType": "address",
                    "name": "to",
                    "type": "address"
                },
                {
                    "internalType": "uint256",
                    "name": "tokenId",
                    "type": "uint256"
                }
            ],
            "name": "safeTransferFrom",
            "outputs": [],
            "stateMutability": "nonpayable",
            "type": "function"
        },
        {
            "inputs": [
                {
                    "internalType": "address",
                    "name": "from",
                    "type": "address"
                },
                {
                    "internalType": "address",
                    "name": "to",
                    "type": "address"
                },
                {
                    "internalType": "uint256",
                    "name": "tokenId",
                    "type": "uint256"
                },
                {
                    "internalType": "bytes",
                    "name": "data",
                    "type": "bytes"
                }
            ],
            "name": "safeTransferFrom",
            "outputs": [],
            "stateMutability": "nonpayable",
            "type": "function"
        },
        {
            "inputs": [
                {
                    "internalType": "address",
                    "name": "operator",
                    "type": "address"
                },
                {
                    "internalType": "bool",
                    "name": "approved",
                    "type": "bool"
                }
            ],
            "name": "setApprovalForAll",
            "outputs": [],
            "stateMutability": "nonpayable",
            "type": "function"
        },
        {
            "inputs": [
                {
                    "internalType": "uint256",
                    "name": "newNumber",
                    "type": "uint256"
                }
            ],
            "name": "setNumber",
            "outputs": [],
            "stateMutability": "nonpayable",
            "type": "function"
        },
        {
            "inputs": [
                {
                    "internalType": "bytes4",
                    "name": "interfaceId",
                    "type": "bytes4"
                }
            ],
            "name": "supportsInterface",
            "outputs": [
                {
                    "internalType": "bool",
                    "name": "",
                    "type": "bool"
                }
            ],
            "stateMutability": "view",
            "type": "function"
        },
        {
            "inputs": [],
            "name": "symbol",
            "outputs": [
                {
                    "internalType": "string",
                    "name": "",
                    "type": "string"
                }
            ],
            "stateMutability": "view",
            "type": "function"
        },
        {
            "inputs": [
                {
                    "internalType": "uint256",
                    "name": "tokenId",
                    "type": "uint256"
                }
            ],
            "name": "tokenURI",
            "outputs": [
                {
                    "internalType": "string",
                    "name": "",
                    "type": "string"
                }
            ],
            "stateMutability": "view",
            "type": "function"
        },
        {
            "inputs": [
                {
                    "internalType": "address",
                    "name": "from",
                    "type": "address"
                },
                {
                    "internalType": "address",
                    "name": "to",
                    "type": "address"
                },
                {
                    "internalType": "uint256",
                    "name": "tokenId",
                    "type": "uint256"
                }
            ],
            "name": "transferFrom",
            "outputs": [],
            "stateMutability": "nonpayable",
            "type": "function"
        }
    ],
    "bytecode": "608060405234801562000010575f80fd5b506040516200121638038062001216833981016040819052620000339162000133565b60408051602080820183525f808352835191820190935282815290916200005b838262000225565b5060016200006a828262000225565b5050505050620002ed565b634e487b7160e01b5f52604160045260245ffd5b5f82601f83011262000099575f80fd5b81516001600160401b0380821115620000b657620000b662000075565b604051601f8301601f19908116603f01168101908282118183101715620000e157620000e162000075565b81604052838152602092508683858801011115620000fd575f80fd5b5f91505b8382101562000120578582018301518183018401529082019062000101565b5f93810190920192909252949350505050565b5f806040838503121562000145575f80fd5b82516001600160401b03808211156200015c575f80fd5b6200016a8683870162000089565b9350602085015191508082111562000180575f80fd5b506200018f8582860162000089565b9150509250929050565b600181811c90821680620001ae57607f821691505b602082108103620001cd57634e487b7160e01b5f52602260045260245ffd5b50919050565b601f82111562000220575f81815260208120601f850160051c81016020861015620001fb5750805b601f850160051c820191505b818110156200021c5782815560010162000207565b5050505b505050565b81516001600160401b0381111562000241576200024162000075565b620002598162000252845462000199565b84620001d3565b602080601f8311600181146200028f575f8415620002775750858301515b5f19600386901b1c1916600185901b1785556200021c565b5f85815260208120601f198616915b82811015620002bf578886015182559484019460019091019084016200029e565b5085821015620002dd57878501515f19600388901b60f8161c191681555b5050505050600190811b01905550565b610f1b80620002fb5f395ff3fe608060405234801561000f575f80fd5b50600436106100fb575f3560e01c806370a0823111610093578063b88d4fde11610063578063b88d4fde1461020d578063c87b56dd14610220578063d09de08a14610233578063e985e9c51461023b575f80fd5b806370a08231146101c85780638381f58a146101e957806395d89b41146101f2578063a22cb465146101fa575f80fd5b806323b872dd116100ce57806323b872dd1461017c5780633fb5c1cb1461018f57806342842e0e146101a25780636352211e146101b5575f80fd5b806301ffc9a7146100ff57806306fdde0314610127578063081812fc1461013c578063095ea7b314610167575b5f80fd5b61011261010d366004610b8b565b61024e565b60405190151581526020015b60405180910390f35b61012f61029f565b60405161011e9190610bf3565b61014f61014a366004610c05565b61032e565b6040516001600160a01b03909116815260200161011e565b61017a610175366004610c37565b610355565b005b61017a61018a366004610c5f565b610364565b61017a61019d366004610c05565b600655565b61017a6101b0366004610c5f565b6103f2565b61014f6101c3366004610c05565b610411565b6101db6101d6366004610c98565b61041b565b60405190815260200161011e565b6101db60065481565b61012f610460565b61017a610208366004610cb1565b61046f565b61017a61021b366004610cfe565b61047a565b61012f61022e366004610c05565b610491565b61017a610502565b610112610249366004610dd3565b610518565b5f6001600160e01b031982166380ac58cd60e01b148061027e57506001600160e01b03198216635b5e139f60e01b145b8061029957506301ffc9a760e01b6001600160e01b03198316145b92915050565b60605f80546102ad90610e04565b80601f01602080910402602001604051908101604052809291908181526020018280546102d990610e04565b80156103245780601f106102fb57610100808354040283529160200191610324565b820191905f5260205f20905b81548152906001019060200180831161030757829003601f168201915b5050505050905090565b5f61033882610545565b505f828152600460205260409020546001600160a01b0316610299565b61036082823361057d565b5050565b6001600160a01b03821661039257604051633250574960e11b81525f60048201526024015b60405180910390fd5b5f61039e83833361058a565b9050836001600160a01b0316816001600160a01b0316146103ec576040516364283d7b60e01b81526001600160a01b0380861660048301526024820184905282166044820152606401610389565b50505050565b61040c83838360405180602001604052805f81525061047a565b505050565b5f61029982610545565b5f6001600160a01b038216610445576040516322718ad960e21b81525f6004820152602401610389565b506001600160a01b03165f9081526003602052604090205490565b6060600180546102ad90610e04565b61036033838361067c565b610485848484610364565b6103ec8484848461071a565b606061049c82610545565b505f6104b260408051602081019091525f815290565b90505f8151116104d05760405180602001604052805f8152506104fb565b806104da84610840565b6040516020016104eb929190610e3c565b6040516020818303038152906040525b9392505050565b60068054905f61051183610e6a565b9190505550565b6001600160a01b039182165f90815260056020908152604080832093909416825291909152205460ff1690565b5f818152600260205260408120546001600160a01b03168061029957604051637e27328960e01b815260048101849052602401610389565b61040c83838360016108d0565b5f828152600260205260408120546001600160a01b03908116908316156105b6576105b68184866109d4565b6001600160a01b038116156105f0576105d15f855f806108d0565b6001600160a01b0381165f90815260036020526040902080545f190190555b6001600160a01b0385161561061e576001600160a01b0385165f908152600360205260409020805460010190555b5f8481526002602052604080822080546001600160a01b0319166001600160a01b0389811691821790925591518793918516917fddf252ad1be2c89b69c2b068fc378daa952ba7f163c4a11628f55a4df523b3ef91a4949350505050565b6001600160a01b0382166106ae57604051630b61174360e31b81526001600160a01b0383166004820152602401610389565b6001600160a01b038381165f81815260056020908152604080832094871680845294825291829020805460ff191686151590811790915591519182527f17307eab39ab6107e8899845ad3d59bd9653f200f220920489ca2b5937696c31910160405180910390a3505050565b6001600160a01b0383163b156103ec57604051630a85bd0160e11b81526001600160a01b0384169063150b7a029061075c903390889087908790600401610e8e565b6020604051808303815f875af1925050508015610796575060408051601f3d908101601f1916820190925261079391810190610eca565b60015b6107fd573d8080156107c3576040519150601f19603f3d011682016040523d82523d5f602084013e6107c8565b606091505b5080515f036107f557604051633250574960e11b81526001600160a01b0385166004820152602401610389565b805181602001fd5b6001600160e01b03198116630a85bd0160e11b1461083957604051633250574960e11b81526001600160a01b0385166004820152602401610389565b5050505050565b60605f61084c83610a38565b60010190505f8167ffffffffffffffff81111561086b5761086b610cea565b6040519080825280601f01601f191660200182016040528015610895576020820181803683370190505b5090508181016020015b5f19016f181899199a1a9b1b9c1cb0b131b232b360811b600a86061a8153600a850494508461089f57509392505050565b80806108e457506001600160a01b03821615155b156109a5575f6108f384610545565b90506001600160a01b0383161580159061091f5750826001600160a01b0316816001600160a01b031614155b801561093257506109308184610518565b155b1561095b5760405163a9fbf51f60e01b81526001600160a01b0384166004820152602401610389565b81156109a35783856001600160a01b0316826001600160a01b03167f8c5be1e5ebec7d5bd14f71427d1e84f3dd0314c0f7b2291e5b200ac8c7c3b92560405160405180910390a45b505b50505f90815260046020526040902080546001600160a01b0319166001600160a01b0392909216919091179055565b6109df838383610b0f565b61040c576001600160a01b038316610a0d57604051637e27328960e01b815260048101829052602401610389565b60405163177e802f60e01b81526001600160a01b038316600482015260248101829052604401610389565b5f8072184f03e93ff9f4daa797ed6e38ed64bf6a1f0160401b8310610a765772184f03e93ff9f4daa797ed6e38ed64bf6a1f0160401b830492506040015b6d04ee2d6d415b85acef81000000008310610aa2576d04ee2d6d415b85acef8100000000830492506020015b662386f26fc100008310610ac057662386f26fc10000830492506010015b6305f5e1008310610ad8576305f5e100830492506008015b6127108310610aec57612710830492506004015b60648310610afe576064830492506002015b600a83106102995760010192915050565b5f6001600160a01b03831615801590610b6b5750826001600160a01b0316846001600160a01b03161480610b485750610b488484610518565b80610b6b57505f828152600460205260409020546001600160a01b038481169116145b949350505050565b6001600160e01b031981168114610b88575f80fd5b50565b5f60208284031215610b9b575f80fd5b81356104fb81610b73565b5f5b83811015610bc0578181015183820152602001610ba8565b50505f910152565b5f8151808452610bdf816020860160208601610ba6565b601f01601f19169290920160200192915050565b602081525f6104fb6020830184610bc8565b5f60208284031215610c15575f80fd5b5035919050565b80356001600160a01b0381168114610c32575f80fd5b919050565b5f8060408385031215610c48575f80fd5b610c5183610c1c565b946020939093013593505050565b5f805f60608486031215610c71575f80fd5b610c7a84610c1c565b9250610c8860208501610c1c565b9150604084013590509250925092565b5f60208284031215610ca8575f80fd5b6104fb82610c1c565b5f8060408385031215610cc2575f80fd5b610ccb83610c1c565b915060208301358015158114610cdf575f80fd5b809150509250929050565b634e487b7160e01b5f52604160045260245ffd5b5f805f8060808587031215610d11575f80fd5b610d1a85610c1c565b9350610d2860208601610c1c565b925060408501359150606085013567ffffffffffffffff80821115610d4b575f80fd5b818701915087601f830112610d5e575f80fd5b813581811115610d7057610d70610cea565b604051601f8201601f19908116603f01168101908382118183101715610d9857610d98610cea565b816040528281528a6020848701011115610db0575f80fd5b826020860160208301375f60208483010152809550505050505092959194509250565b5f8060408385031215610de4575f80fd5b610ded83610c1c565b9150610dfb60208401610c1c565b90509250929050565b600181811c90821680610e1857607f821691505b602082108103610e3657634e487b7160e01b5f52602260045260245ffd5b50919050565b5f8351610e4d818460208801610ba6565b835190830190610e61818360208801610ba6565b01949350505050565b5f60018201610e8757634e487b7160e01b5f52601160045260245ffd5b5060010190565b6001600160a01b03858116825284166020820152604081018390526080606082018190525f90610ec090830184610bc8565b9695505050505050565b5f60208284031215610eda575f80fd5b81516104fb81610b7356fea264697066735822122084237cc2821dd70a44839933a08def0261d8cee4d5c4c6145971ef3f4518bbf364736f6c63430008140033",
    "sourcePath": "/Users/K.Z./Desktop/projects/forge-test/src/Counter.sol",
    "compiler": {
        "name": "solc",
        "version": "0.8.20+commit.a1b79de6"
    },
    "functionHashes": {
        "approve(address,uint256)": "095ea7b3",
        "balanceOf(address)": "70a08231",
        "getApproved(uint256)": "081812fc",
        "increment()": "d09de08a",
        "isApprovedForAll(address,address)": "e985e9c5",
        "name()": "06fdde03",
        "number()": "8381f58a",
        "ownerOf(uint256)": "6352211e",
        "safeTransferFrom(address,address,uint256)": "42842e0e",
        "safeTransferFrom(address,address,uint256,bytes)": "b88d4fde",
        "setApprovalForAll(address,bool)": "a22cb465",
        "setNumber(uint256)": "3fb5c1cb",
        "supportsInterface(bytes4)": "01ffc9a7",
        "symbol()": "95d89b41",
        "tokenURI(uint256)": "c87b56dd",
        "transferFrom(address,address,uint256)": "23b872dd"
    },
    "gasEstimates": {
        "creation": {
            "codeDepositCost": "773400",
            "executionCost": "infinite",
            "totalCost": "infinite"
        },
        "external": {
            "approve(address,uint256)": "31531",
            "balanceOf(address)": "2608",
            "getApproved(uint256)": "infinite",
            "increment()": "24493",
            "isApprovedForAll(address,address)": "infinite",
            "name()": "infinite",
            "number()": "2339",
            "ownerOf(uint256)": "infinite",
            "safeTransferFrom(address,address,uint256)": "infinite",
            "safeTransferFrom(address,address,uint256,bytes)": "infinite",
            "setApprovalForAll(address,bool)": "26745",
            "setNumber(uint256)": "22355",
            "supportsInterface(bytes4)": "531",
            "symbol()": "infinite",
            "tokenURI(uint256)": "infinite",
            "transferFrom(address,address,uint256)": "infinite"
        }
    }
}